{
  "contractName": "ERC721PresetMinterPauserAutoId",
  "abi": [
    {
      "inputs": [
        {
          "internalType": "string",
          "name": "name",
          "type": "string"
        },
        {
          "internalType": "string",
          "name": "symbol",
          "type": "string"
        },
        {
          "internalType": "string",
          "name": "baseTokenURI",
          "type": "string"
        }
      ],
      "stateMutability": "nonpayable",
      "type": "constructor"
    },
    {
      "anonymous": false,
      "inputs": [
        {
          "indexed": true,
          "internalType": "address",
          "name": "owner",
          "type": "address"
        },
        {
          "indexed": true,
          "internalType": "address",
          "name": "approved",
          "type": "address"
        },
        {
          "indexed": true,
          "internalType": "uint256",
          "name": "tokenId",
          "type": "uint256"
        }
      ],
      "name": "Approval",
      "type": "event"
    },
    {
      "anonymous": false,
      "inputs": [
        {
          "indexed": true,
          "internalType": "address",
          "name": "owner",
          "type": "address"
        },
        {
          "indexed": true,
          "internalType": "address",
          "name": "operator",
          "type": "address"
        },
        {
          "indexed": false,
          "internalType": "bool",
          "name": "approved",
          "type": "bool"
        }
      ],
      "name": "ApprovalForAll",
      "type": "event"
    },
    {
      "anonymous": false,
      "inputs": [
        {
          "indexed": false,
          "internalType": "address",
          "name": "account",
          "type": "address"
        }
      ],
      "name": "Paused",
      "type": "event"
    },
    {
      "anonymous": false,
      "inputs": [
        {
          "indexed": true,
          "internalType": "bytes32",
          "name": "role",
          "type": "bytes32"
        },
        {
          "indexed": true,
          "internalType": "bytes32",
          "name": "previousAdminRole",
          "type": "bytes32"
        },
        {
          "indexed": true,
          "internalType": "bytes32",
          "name": "newAdminRole",
          "type": "bytes32"
        }
      ],
      "name": "RoleAdminChanged",
      "type": "event"
    },
    {
      "anonymous": false,
      "inputs": [
        {
          "indexed": true,
          "internalType": "bytes32",
          "name": "role",
          "type": "bytes32"
        },
        {
          "indexed": true,
          "internalType": "address",
          "name": "account",
          "type": "address"
        },
        {
          "indexed": true,
          "internalType": "address",
          "name": "sender",
          "type": "address"
        }
      ],
      "name": "RoleGranted",
      "type": "event"
    },
    {
      "anonymous": false,
      "inputs": [
        {
          "indexed": true,
          "internalType": "bytes32",
          "name": "role",
          "type": "bytes32"
        },
        {
          "indexed": true,
          "internalType": "address",
          "name": "account",
          "type": "address"
        },
        {
          "indexed": true,
          "internalType": "address",
          "name": "sender",
          "type": "address"
        }
      ],
      "name": "RoleRevoked",
      "type": "event"
    },
    {
      "anonymous": false,
      "inputs": [
        {
          "indexed": true,
          "internalType": "address",
          "name": "from",
          "type": "address"
        },
        {
          "indexed": true,
          "internalType": "address",
          "name": "to",
          "type": "address"
        },
        {
          "indexed": true,
          "internalType": "uint256",
          "name": "tokenId",
          "type": "uint256"
        }
      ],
      "name": "Transfer",
      "type": "event"
    },
    {
      "anonymous": false,
      "inputs": [
        {
          "indexed": false,
          "internalType": "address",
          "name": "account",
          "type": "address"
        }
      ],
      "name": "Unpaused",
      "type": "event"
    },
    {
      "inputs": [],
      "name": "DEFAULT_ADMIN_ROLE",
      "outputs": [
        {
          "internalType": "bytes32",
          "name": "",
          "type": "bytes32"
        }
      ],
      "stateMutability": "view",
      "type": "function"
    },
    {
      "inputs": [],
      "name": "MINTER_ROLE",
      "outputs": [
        {
          "internalType": "bytes32",
          "name": "",
          "type": "bytes32"
        }
      ],
      "stateMutability": "view",
      "type": "function"
    },
    {
      "inputs": [],
      "name": "PAUSER_ROLE",
      "outputs": [
        {
          "internalType": "bytes32",
          "name": "",
          "type": "bytes32"
        }
      ],
      "stateMutability": "view",
      "type": "function"
    },
    {
      "inputs": [
        {
          "internalType": "address",
          "name": "to",
          "type": "address"
        },
        {
          "internalType": "uint256",
          "name": "tokenId",
          "type": "uint256"
        }
      ],
      "name": "approve",
      "outputs": [],
      "stateMutability": "nonpayable",
      "type": "function"
    },
    {
      "inputs": [
        {
          "internalType": "address",
          "name": "owner",
          "type": "address"
        }
      ],
      "name": "balanceOf",
      "outputs": [
        {
          "internalType": "uint256",
          "name": "",
          "type": "uint256"
        }
      ],
      "stateMutability": "view",
      "type": "function"
    },
    {
      "inputs": [
        {
          "internalType": "uint256",
          "name": "tokenId",
          "type": "uint256"
        }
      ],
      "name": "burn",
      "outputs": [],
      "stateMutability": "nonpayable",
      "type": "function"
    },
    {
      "inputs": [
        {
          "internalType": "uint256",
          "name": "tokenId",
          "type": "uint256"
        }
      ],
      "name": "getApproved",
      "outputs": [
        {
          "internalType": "address",
          "name": "",
          "type": "address"
        }
      ],
      "stateMutability": "view",
      "type": "function"
    },
    {
      "inputs": [
        {
          "internalType": "bytes32",
          "name": "role",
          "type": "bytes32"
        }
      ],
      "name": "getRoleAdmin",
      "outputs": [
        {
          "internalType": "bytes32",
          "name": "",
          "type": "bytes32"
        }
      ],
      "stateMutability": "view",
      "type": "function"
    },
    {
      "inputs": [
        {
          "internalType": "bytes32",
          "name": "role",
          "type": "bytes32"
        },
        {
          "internalType": "uint256",
          "name": "index",
          "type": "uint256"
        }
      ],
      "name": "getRoleMember",
      "outputs": [
        {
          "internalType": "address",
          "name": "",
          "type": "address"
        }
      ],
      "stateMutability": "view",
      "type": "function"
    },
    {
      "inputs": [
        {
          "internalType": "bytes32",
          "name": "role",
          "type": "bytes32"
        }
      ],
      "name": "getRoleMemberCount",
      "outputs": [
        {
          "internalType": "uint256",
          "name": "",
          "type": "uint256"
        }
      ],
      "stateMutability": "view",
      "type": "function"
    },
    {
      "inputs": [
        {
          "internalType": "bytes32",
          "name": "role",
          "type": "bytes32"
        },
        {
          "internalType": "address",
          "name": "account",
          "type": "address"
        }
      ],
      "name": "grantRole",
      "outputs": [],
      "stateMutability": "nonpayable",
      "type": "function"
    },
    {
      "inputs": [
        {
          "internalType": "bytes32",
          "name": "role",
          "type": "bytes32"
        },
        {
          "internalType": "address",
          "name": "account",
          "type": "address"
        }
      ],
      "name": "hasRole",
      "outputs": [
        {
          "internalType": "bool",
          "name": "",
          "type": "bool"
        }
      ],
      "stateMutability": "view",
      "type": "function"
    },
    {
      "inputs": [
        {
          "internalType": "address",
          "name": "owner",
          "type": "address"
        },
        {
          "internalType": "address",
          "name": "operator",
          "type": "address"
        }
      ],
      "name": "isApprovedForAll",
      "outputs": [
        {
          "internalType": "bool",
          "name": "",
          "type": "bool"
        }
      ],
      "stateMutability": "view",
      "type": "function"
    },
    {
      "inputs": [],
      "name": "name",
      "outputs": [
        {
          "internalType": "string",
          "name": "",
          "type": "string"
        }
      ],
      "stateMutability": "view",
      "type": "function"
    },
    {
      "inputs": [
        {
          "internalType": "uint256",
          "name": "tokenId",
          "type": "uint256"
        }
      ],
      "name": "ownerOf",
      "outputs": [
        {
          "internalType": "address",
          "name": "",
          "type": "address"
        }
      ],
      "stateMutability": "view",
      "type": "function"
    },
    {
      "inputs": [],
      "name": "paused",
      "outputs": [
        {
          "internalType": "bool",
          "name": "",
          "type": "bool"
        }
      ],
      "stateMutability": "view",
      "type": "function"
    },
    {
      "inputs": [
        {
          "internalType": "bytes32",
          "name": "role",
          "type": "bytes32"
        },
        {
          "internalType": "address",
          "name": "account",
          "type": "address"
        }
      ],
      "name": "renounceRole",
      "outputs": [],
      "stateMutability": "nonpayable",
      "type": "function"
    },
    {
      "inputs": [
        {
          "internalType": "bytes32",
          "name": "role",
          "type": "bytes32"
        },
        {
          "internalType": "address",
          "name": "account",
          "type": "address"
        }
      ],
      "name": "revokeRole",
      "outputs": [],
      "stateMutability": "nonpayable",
      "type": "function"
    },
    {
      "inputs": [
        {
          "internalType": "address",
          "name": "from",
          "type": "address"
        },
        {
          "internalType": "address",
          "name": "to",
          "type": "address"
        },
        {
          "internalType": "uint256",
          "name": "tokenId",
          "type": "uint256"
        }
      ],
      "name": "safeTransferFrom",
      "outputs": [],
      "stateMutability": "nonpayable",
      "type": "function"
    },
    {
      "inputs": [
        {
          "internalType": "address",
          "name": "from",
          "type": "address"
        },
        {
          "internalType": "address",
          "name": "to",
          "type": "address"
        },
        {
          "internalType": "uint256",
          "name": "tokenId",
          "type": "uint256"
        },
        {
          "internalType": "bytes",
          "name": "_data",
          "type": "bytes"
        }
      ],
      "name": "safeTransferFrom",
      "outputs": [],
      "stateMutability": "nonpayable",
      "type": "function"
    },
    {
      "inputs": [
        {
          "internalType": "address",
          "name": "operator",
          "type": "address"
        },
        {
          "internalType": "bool",
          "name": "approved",
          "type": "bool"
        }
      ],
      "name": "setApprovalForAll",
      "outputs": [],
      "stateMutability": "nonpayable",
      "type": "function"
    },
    {
      "inputs": [],
      "name": "symbol",
      "outputs": [
        {
          "internalType": "string",
          "name": "",
          "type": "string"
        }
      ],
      "stateMutability": "view",
      "type": "function"
    },
    {
      "inputs": [
        {
          "internalType": "uint256",
          "name": "index",
          "type": "uint256"
        }
      ],
      "name": "tokenByIndex",
      "outputs": [
        {
          "internalType": "uint256",
          "name": "",
          "type": "uint256"
        }
      ],
      "stateMutability": "view",
      "type": "function"
    },
    {
      "inputs": [
        {
          "internalType": "address",
          "name": "owner",
          "type": "address"
        },
        {
          "internalType": "uint256",
          "name": "index",
          "type": "uint256"
        }
      ],
      "name": "tokenOfOwnerByIndex",
      "outputs": [
        {
          "internalType": "uint256",
          "name": "",
          "type": "uint256"
        }
      ],
      "stateMutability": "view",
      "type": "function"
    },
    {
      "inputs": [
        {
          "internalType": "uint256",
          "name": "tokenId",
          "type": "uint256"
        }
      ],
      "name": "tokenURI",
      "outputs": [
        {
          "internalType": "string",
          "name": "",
          "type": "string"
        }
      ],
      "stateMutability": "view",
      "type": "function"
    },
    {
      "inputs": [],
      "name": "totalSupply",
      "outputs": [
        {
          "internalType": "uint256",
          "name": "",
          "type": "uint256"
        }
      ],
      "stateMutability": "view",
      "type": "function"
    },
    {
      "inputs": [
        {
          "internalType": "address",
          "name": "from",
          "type": "address"
        },
        {
          "internalType": "address",
          "name": "to",
          "type": "address"
        },
        {
          "internalType": "uint256",
          "name": "tokenId",
          "type": "uint256"
        }
      ],
      "name": "transferFrom",
      "outputs": [],
      "stateMutability": "nonpayable",
      "type": "function"
    },
    {
      "inputs": [
        {
          "internalType": "address",
          "name": "to",
          "type": "address"
        }
      ],
      "name": "mint",
      "outputs": [],
      "stateMutability": "nonpayable",
      "type": "function"
    },
    {
      "inputs": [],
      "name": "pause",
      "outputs": [],
      "stateMutability": "nonpayable",
      "type": "function"
    },
    {
      "inputs": [],
      "name": "unpause",
      "outputs": [],
      "stateMutability": "nonpayable",
      "type": "function"
    },
    {
      "inputs": [
        {
          "internalType": "bytes4",
          "name": "interfaceId",
          "type": "bytes4"
        }
      ],
      "name": "supportsInterface",
      "outputs": [
        {
          "internalType": "bool",
          "name": "",
          "type": "bool"
        }
      ],
      "stateMutability": "view",
      "type": "function"
    }
  ],
  "bytecode": "0x60806040523480156200001157600080fd5b506040516200519338038062005193833981810160405281019062000037919062000508565b8282816002908051906020019062000051929190620003e6565b5080600390805190602001906200006a929190620003e6565b5050506000600c60006101000a81548160ff02191690831515021790555080600e9080519060200190620000a0929190620003e6565b50620000c56000801b620000b96200015060201b60201c565b6200015860201b60201c565b620001067f9f2df0fed2c77648de5860a4cc508cd0818c85b8b8a1ab4ceeef8d981c8956a6620000fa6200015060201b60201c565b6200015860201b60201c565b620001477f65d7a28e3265b37a6474929f336521b332c1681b933f6cb9f3376673440d862a6200013b6200015060201b60201c565b6200015860201b60201c565b50505062000719565b600033905090565b6200016f8282620001a060201b6200130a1760201c565b6200019b8160016000858152602001908152602001600020620001b660201b620013181790919060201c565b505050565b620001b28282620001ee60201b60201c565b5050565b6000620001e6836000018373ffffffffffffffffffffffffffffffffffffffff1660001b620002df60201b60201c565b905092915050565b6200020082826200035960201b60201c565b620002db57600160008084815260200190815260200160002060000160008373ffffffffffffffffffffffffffffffffffffffff1673ffffffffffffffffffffffffffffffffffffffff16815260200190815260200160002060006101000a81548160ff021916908315150217905550620002806200015060201b60201c565b73ffffffffffffffffffffffffffffffffffffffff168173ffffffffffffffffffffffffffffffffffffffff16837f2f8788117e7eff1d82e926ec794901d17c78024a50270940304540a733656f0d60405160405180910390a45b5050565b6000620002f38383620003c360201b60201c565b6200034e57826000018290806001815401808255809150506001900390600052602060002001600090919091909150558260000180549050836001016000848152602001908152602001600020819055506001905062000353565b600090505b92915050565b600080600084815260200190815260200160002060000160008373ffffffffffffffffffffffffffffffffffffffff1673ffffffffffffffffffffffffffffffffffffffff16815260200190815260200160002060009054906101000a900460ff16905092915050565b600080836001016000848152602001908152602001600020541415905092915050565b828054620003f4906200063e565b90600052602060002090601f01602090048101928262000418576000855562000464565b82601f106200043357805160ff191683800117855562000464565b8280016001018555821562000464579182015b828111156200046357825182559160200191906001019062000446565b5b50905062000473919062000477565b5090565b5b808211156200049257600081600090555060010162000478565b5090565b6000620004ad620004a784620005d2565b620005a9565b905082815260208101848484011115620004c657600080fd5b620004d384828562000608565b509392505050565b600082601f830112620004ed57600080fd5b8151620004ff84826020860162000496565b91505092915050565b6000806000606084860312156200051e57600080fd5b600084015167ffffffffffffffff8111156200053957600080fd5b6200054786828701620004db565b935050602084015167ffffffffffffffff8111156200056557600080fd5b6200057386828701620004db565b925050604084015167ffffffffffffffff8111156200059157600080fd5b6200059f86828701620004db565b9150509250925092565b6000620005b5620005c8565b9050620005c3828262000674565b919050565b6000604051905090565b600067ffffffffffffffff821115620005f057620005ef620006d9565b5b620005fb8262000708565b9050602081019050919050565b60005b83811015620006285780820151818401526020810190506200060b565b8381111562000638576000848401525b50505050565b600060028204905060018216806200065757607f821691505b602082108114156200066e576200066d620006aa565b5b50919050565b6200067f8262000708565b810181811067ffffffffffffffff82111715620006a157620006a0620006d9565b5b80604052505050565b7f4e487b7100000000000000000000000000000000000000000000000000000000600052602260045260246000fd5b7f4e487b7100000000000000000000000000000000000000000000000000000000600052604160045260246000fd5b6000601f19601f8301169050919050565b614a6a80620007296000396000f3fe608060405234801561001057600080fd5b50600436106101e55760003560e01c80636352211e1161010f578063a22cb465116100a2578063d539139311610071578063d5391393146105a0578063d547741f146105be578063e63ab1e9146105da578063e985e9c5146105f8576101e5565b8063a22cb46514610508578063b88d4fde14610524578063c87b56dd14610540578063ca15c87314610570576101e5565b80639010d07c116100de5780639010d07c1461046c57806391d148541461049c57806395d89b41146104cc578063a217fddf146104ea576101e5565b80636352211e146103e65780636a6278421461041657806370a08231146104325780638456cb5914610462576101e5565b80632f2ff15d1161018757806342842e0e1161015657806342842e0e1461036057806342966c681461037c5780634f6ccce7146103985780635c975abb146103c8576101e5565b80632f2ff15d146102ee5780632f745c591461030a57806336568abe1461033a5780633f4ba83a14610356576101e5565b8063095ea7b3116101c3578063095ea7b31461026857806318160ddd1461028457806323b872dd146102a2578063248a9ca3146102be576101e5565b806301ffc9a7146101ea57806306fdde031461021a578063081812fc14610238575b600080fd5b61020460048036038101906101ff9190613465565b610628565b6040516102119190613a58565b60405180910390f35b61022261063a565b60405161022f9190613a8e565b60405180910390f35b610252600480360381019061024d91906134b7565b6106cc565b60405161025f91906139f1565b60405180910390f35b610282600480360381019061027d9190613388565b610751565b005b61028c610869565b6040516102999190613df0565b60405180910390f35b6102bc60048036038101906102b79190613282565b610876565b005b6102d860048036038101906102d391906133c4565b6108d6565b6040516102e59190613a73565b60405180910390f35b610308600480360381019061030391906133ed565b6108f5565b005b610324600480360381019061031f9190613388565b610929565b6040516103319190613df0565b60405180910390f35b610354600480360381019061034f91906133ed565b6109ce565b005b61035e610a02565b005b61037a60048036038101906103759190613282565b610a7c565b005b610396600480360381019061039191906134b7565b610a9c565b005b6103b260048036038101906103ad91906134b7565b610af8565b6040516103bf9190613df0565b60405180910390f35b6103d0610b8f565b6040516103dd9190613a58565b60405180910390f35b61040060048036038101906103fb91906134b7565b610ba6565b60405161040d91906139f1565b60405180910390f35b610430600480360381019061042b919061321d565b610c58565b005b61044c6004803603810190610447919061321d565b610ce8565b6040516104599190613df0565b60405180910390f35b61046a610da0565b005b61048660048036038101906104819190613429565b610e1a565b60405161049391906139f1565b60405180910390f35b6104b660048036038101906104b191906133ed565b610e49565b6040516104c39190613a58565b60405180910390f35b6104d4610eb3565b6040516104e19190613a8e565b60405180910390f35b6104f2610f45565b6040516104ff9190613a73565b60405180910390f35b610522600480360381019061051d919061334c565b610f4c565b005b61053e600480360381019061053991906132d1565b6110cd565b005b61055a600480360381019061055591906134b7565b61112f565b6040516105679190613a8e565b60405180910390f35b61058a600480360381019061058591906133c4565b6111d6565b6040516105979190613df0565b60405180910390f35b6105a86111fa565b6040516105b59190613a73565b60405180910390f35b6105d860048036038101906105d391906133ed565b61121e565b005b6105e2611252565b6040516105ef9190613a73565b60405180910390f35b610612600480360381019061060d9190613246565b611276565b60405161061f9190613a58565b60405180910390f35b600061063382611348565b9050919050565b606060028054610649906140a3565b80601f0160208091040260200160405190810160405280929190818152602001828054610675906140a3565b80156106c25780601f10610697576101008083540402835291602001916106c2565b820191906000526020600020905b8154815290600101906020018083116106a557829003601f168201915b5050505050905090565b60006106d7826113c2565b610716576040517f08c379a000000000000000000000000000000000000000000000000000000000815260040161070d90613cb0565b60405180910390fd5b6006600083815260200190815260200160002060009054906101000a900473ffffffffffffffffffffffffffffffffffffffff169050919050565b600061075c82610ba6565b90508073ffffffffffffffffffffffffffffffffffffffff168373ffffffffffffffffffffffffffffffffffffffff1614156107cd576040517f08c379a00000000000000000000000000000000000000000000000000000000081526004016107c490613d10565b60405180910390fd5b8073ffffffffffffffffffffffffffffffffffffffff166107ec61142e565b73ffffffffffffffffffffffffffffffffffffffff16148061081b575061081a8161081561142e565b611276565b5b61085a576040517f08c379a000000000000000000000000000000000000000000000000000000000815260040161085190613c30565b60405180910390fd5b6108648383611436565b505050565b6000600a80549050905090565b61088761088161142e565b826114ef565b6108c6576040517f08c379a00000000000000000000000000000000000000000000000000000000081526004016108bd90613d30565b60405180910390fd5b6108d18383836115cd565b505050565b6000806000838152602001908152602001600020600101549050919050565b6108ff8282611829565b610924816001600085815260200190815260200160002061131890919063ffffffff16565b505050565b600061093483610ce8565b8210610975576040517f08c379a000000000000000000000000000000000000000000000000000000000815260040161096c90613b30565b60405180910390fd5b600860008473ffffffffffffffffffffffffffffffffffffffff1673ffffffffffffffffffffffffffffffffffffffff168152602001908152602001600020600083815260200190815260200160002054905092915050565b6109d88282611852565b6109fd81600160008581526020019081526020016000206118d590919063ffffffff16565b505050565b610a337f65d7a28e3265b37a6474929f336521b332c1681b933f6cb9f3376673440d862a610a2e61142e565b610e49565b610a72576040517f08c379a0000000000000000000000000000000000000000000000000000000008152600401610a6990613db0565b60405180910390fd5b610a7a611905565b565b610a97838383604051806020016040528060008152506110cd565b505050565b610aad610aa761142e565b826114ef565b610aec576040517f08c379a0000000000000000000000000000000000000000000000000000000008152600401610ae390613d90565b60405180910390fd5b610af5816119a7565b50565b6000610b02610869565b8210610b43576040517f08c379a0000000000000000000000000000000000000000000000000000000008152600401610b3a90613d50565b60405180910390fd5b600a8281548110610b7d577f4e487b7100000000000000000000000000000000000000000000000000000000600052603260045260246000fd5b90600052602060002001549050919050565b6000600c60009054906101000a900460ff16905090565b6000806004600084815260200190815260200160002060009054906101000a900473ffffffffffffffffffffffffffffffffffffffff169050600073ffffffffffffffffffffffffffffffffffffffff168173ffffffffffffffffffffffffffffffffffffffff161415610c4f576040517f08c379a0000000000000000000000000000000000000000000000000000000008152600401610c4690613c70565b60405180910390fd5b80915050919050565b610c897f9f2df0fed2c77648de5860a4cc508cd0818c85b8b8a1ab4ceeef8d981c8956a6610c8461142e565b610e49565b610cc8576040517f08c379a0000000000000000000000000000000000000000000000000000000008152600401610cbf90613d70565b60405180910390fd5b610cdb81610cd6600d611ab8565b611ac6565b610ce5600d611c94565b50565b60008073ffffffffffffffffffffffffffffffffffffffff168273ffffffffffffffffffffffffffffffffffffffff161415610d59576040517f08c379a0000000000000000000000000000000000000000000000000000000008152600401610d5090613c50565b60405180910390fd5b600560008373ffffffffffffffffffffffffffffffffffffffff1673ffffffffffffffffffffffffffffffffffffffff168152602001908152602001600020549050919050565b610dd17f65d7a28e3265b37a6474929f336521b332c1681b933f6cb9f3376673440d862a610dcc61142e565b610e49565b610e10576040517f08c379a0000000000000000000000000000000000000000000000000000000008152600401610e0790613b90565b60405180910390fd5b610e18611caa565b565b6000610e418260016000868152602001908152602001600020611d4d90919063ffffffff16565b905092915050565b600080600084815260200190815260200160002060000160008373ffffffffffffffffffffffffffffffffffffffff1673ffffffffffffffffffffffffffffffffffffffff16815260200190815260200160002060009054906101000a900460ff16905092915050565b606060038054610ec2906140a3565b80601f0160208091040260200160405190810160405280929190818152602001828054610eee906140a3565b8015610f3b5780601f10610f1057610100808354040283529160200191610f3b565b820191906000526020600020905b815481529060010190602001808311610f1e57829003601f168201915b5050505050905090565b6000801b81565b610f5461142e565b73ffffffffffffffffffffffffffffffffffffffff168273ffffffffffffffffffffffffffffffffffffffff161415610fc2576040517f08c379a0000000000000000000000000000000000000000000000000000000008152600401610fb990613bd0565b60405180910390fd5b8060076000610fcf61142e565b73ffffffffffffffffffffffffffffffffffffffff1673ffffffffffffffffffffffffffffffffffffffff16815260200190815260200160002060008473ffffffffffffffffffffffffffffffffffffffff1673ffffffffffffffffffffffffffffffffffffffff16815260200190815260200160002060006101000a81548160ff0219169083151502179055508173ffffffffffffffffffffffffffffffffffffffff1661107c61142e565b73ffffffffffffffffffffffffffffffffffffffff167f17307eab39ab6107e8899845ad3d59bd9653f200f220920489ca2b5937696c31836040516110c19190613a58565b60405180910390a35050565b6110de6110d861142e565b836114ef565b61111d576040517f08c379a000000000000000000000000000000000000000000000000000000000815260040161111490613d30565b60405180910390fd5b61112984848484611d67565b50505050565b606061113a826113c2565b611179576040517f08c379a000000000000000000000000000000000000000000000000000000000815260040161117090613cf0565b60405180910390fd5b6000611183611dc3565b905060008151116111a357604051806020016040528060008152506111ce565b806111ad84611e55565b6040516020016111be929190613993565b6040516020818303038152906040525b915050919050565b60006111f360016000848152602001908152602001600020612002565b9050919050565b7f9f2df0fed2c77648de5860a4cc508cd0818c85b8b8a1ab4ceeef8d981c8956a681565b6112288282612017565b61124d81600160008581526020019081526020016000206118d590919063ffffffff16565b505050565b7f65d7a28e3265b37a6474929f336521b332c1681b933f6cb9f3376673440d862a81565b6000600760008473ffffffffffffffffffffffffffffffffffffffff1673ffffffffffffffffffffffffffffffffffffffff16815260200190815260200160002060008373ffffffffffffffffffffffffffffffffffffffff1673ffffffffffffffffffffffffffffffffffffffff16815260200190815260200160002060009054906101000a900460ff16905092915050565b6113148282612040565b5050565b6000611340836000018373ffffffffffffffffffffffffffffffffffffffff1660001b612120565b905092915050565b60007f780e9d63000000000000000000000000000000000000000000000000000000007bffffffffffffffffffffffffffffffffffffffffffffffffffffffff1916827bffffffffffffffffffffffffffffffffffffffffffffffffffffffff191614806113bb57506113ba82612190565b5b9050919050565b60008073ffffffffffffffffffffffffffffffffffffffff166004600084815260200190815260200160002060009054906101000a900473ffffffffffffffffffffffffffffffffffffffff1673ffffffffffffffffffffffffffffffffffffffff1614159050919050565b600033905090565b816006600083815260200190815260200160002060006101000a81548173ffffffffffffffffffffffffffffffffffffffff021916908373ffffffffffffffffffffffffffffffffffffffff160217905550808273ffffffffffffffffffffffffffffffffffffffff166114a983610ba6565b73ffffffffffffffffffffffffffffffffffffffff167f8c5be1e5ebec7d5bd14f71427d1e84f3dd0314c0f7b2291e5b200ac8c7c3b92560405160405180910390a45050565b60006114fa826113c2565b611539576040517f08c379a000000000000000000000000000000000000000000000000000000000815260040161153090613bf0565b60405180910390fd5b600061154483610ba6565b90508073ffffffffffffffffffffffffffffffffffffffff168473ffffffffffffffffffffffffffffffffffffffff1614806115b357508373ffffffffffffffffffffffffffffffffffffffff1661159b846106cc565b73ffffffffffffffffffffffffffffffffffffffff16145b806115c457506115c38185611276565b5b91505092915050565b8273ffffffffffffffffffffffffffffffffffffffff166115ed82610ba6565b73ffffffffffffffffffffffffffffffffffffffff1614611643576040517f08c379a000000000000000000000000000000000000000000000000000000000815260040161163a90613cd0565b60405180910390fd5b600073ffffffffffffffffffffffffffffffffffffffff168273ffffffffffffffffffffffffffffffffffffffff1614156116b3576040517f08c379a00000000000000000000000000000000000000000000000000000000081526004016116aa90613bb0565b60405180910390fd5b6116be838383612272565b6116c9600082611436565b6001600560008573ffffffffffffffffffffffffffffffffffffffff1673ffffffffffffffffffffffffffffffffffffffff16815260200190815260200160002060008282546117199190613f85565b925050819055506001600560008473ffffffffffffffffffffffffffffffffffffffff1673ffffffffffffffffffffffffffffffffffffffff16815260200190815260200160002060008282546117709190613ea4565b92505081905550816004600083815260200190815260200160002060006101000a81548173ffffffffffffffffffffffffffffffffffffffff021916908373ffffffffffffffffffffffffffffffffffffffff160217905550808273ffffffffffffffffffffffffffffffffffffffff168473ffffffffffffffffffffffffffffffffffffffff167fddf252ad1be2c89b69c2b068fc378daa952ba7f163c4a11628f55a4df523b3ef60405160405180910390a4505050565b611832826108d6565b6118438161183e61142e565b612282565b61184d8383612040565b505050565b61185a61142e565b73ffffffffffffffffffffffffffffffffffffffff168173ffffffffffffffffffffffffffffffffffffffff16146118c7576040517f08c379a00000000000000000000000000000000000000000000000000000000081526004016118be90613dd0565b60405180910390fd5b6118d1828261231f565b5050565b60006118fd836000018373ffffffffffffffffffffffffffffffffffffffff1660001b612400565b905092915050565b61190d610b8f565b61194c576040517f08c379a000000000000000000000000000000000000000000000000000000000815260040161194390613b10565b60405180910390fd5b6000600c60006101000a81548160ff0219169083151502179055507f5db9ee0a495bf2e6ff9c91a7834c1ba4fdd244a5e8aa4e537bd38aeae4b073aa61199061142e565b60405161199d91906139f1565b60405180910390a1565b60006119b282610ba6565b90506119c081600084612272565b6119cb600083611436565b6001600560008373ffffffffffffffffffffffffffffffffffffffff1673ffffffffffffffffffffffffffffffffffffffff1681526020019081526020016000206000828254611a1b9190613f85565b925050819055506004600083815260200190815260200160002060006101000a81549073ffffffffffffffffffffffffffffffffffffffff021916905581600073ffffffffffffffffffffffffffffffffffffffff168273ffffffffffffffffffffffffffffffffffffffff167fddf252ad1be2c89b69c2b068fc378daa952ba7f163c4a11628f55a4df523b3ef60405160405180910390a45050565b600081600001549050919050565b600073ffffffffffffffffffffffffffffffffffffffff168273ffffffffffffffffffffffffffffffffffffffff161415611b36576040517f08c379a0000000000000000000000000000000000000000000000000000000008152600401611b2d90613c90565b60405180910390fd5b611b3f816113c2565b15611b7f576040517f08c379a0000000000000000000000000000000000000000000000000000000008152600401611b7690613b70565b60405180910390fd5b611b8b60008383612272565b6001600560008473ffffffffffffffffffffffffffffffffffffffff1673ffffffffffffffffffffffffffffffffffffffff1681526020019081526020016000206000828254611bdb9190613ea4565b92505081905550816004600083815260200190815260200160002060006101000a81548173ffffffffffffffffffffffffffffffffffffffff021916908373ffffffffffffffffffffffffffffffffffffffff160217905550808273ffffffffffffffffffffffffffffffffffffffff16600073ffffffffffffffffffffffffffffffffffffffff167fddf252ad1be2c89b69c2b068fc378daa952ba7f163c4a11628f55a4df523b3ef60405160405180910390a45050565b6001816000016000828254019250508190555050565b611cb2610b8f565b15611cf2576040517f08c379a0000000000000000000000000000000000000000000000000000000008152600401611ce990613c10565b60405180910390fd5b6001600c60006101000a81548160ff0219169083151502179055507f62e78cea01bee320cd4e420270b5ea74000d11b0c9f74754ebdbfc544b05a258611d3661142e565b604051611d4391906139f1565b60405180910390a1565b6000611d5c836000018361257e565b60001c905092915050565b611d728484846115cd565b611d7e84848484612618565b611dbd576040517f08c379a0000000000000000000000000000000000000000000000000000000008152600401611db490613b50565b60405180910390fd5b50505050565b6060600e8054611dd2906140a3565b80601f0160208091040260200160405190810160405280929190818152602001828054611dfe906140a3565b8015611e4b5780601f10611e2057610100808354040283529160200191611e4b565b820191906000526020600020905b815481529060010190602001808311611e2e57829003601f168201915b5050505050905090565b60606000821415611e9d576040518060400160405280600181526020017f30000000000000000000000000000000000000000000000000000000000000008152509050611ffd565b600082905060005b60008214611ecf578080611eb890614106565b915050600a82611ec89190613efa565b9150611ea5565b60008167ffffffffffffffff811115611f11577f4e487b7100000000000000000000000000000000000000000000000000000000600052604160045260246000fd5b6040519080825280601f01601f191660200182016040528015611f435781602001600182028036833780820191505090505b5090505b60008514611ff657600182611f5c9190613f85565b9150600a85611f6b919061414f565b6030611f779190613ea4565b60f81b818381518110611fb3577f4e487b7100000000000000000000000000000000000000000000000000000000600052603260045260246000fd5b60200101907effffffffffffffffffffffffffffffffffffffffffffffffffffffffffffff1916908160001a905350600a85611fef9190613efa565b9450611f47565b8093505050505b919050565b6000612010826000016127af565b9050919050565b612020826108d6565b6120318161202c61142e565b612282565b61203b838361231f565b505050565b61204a8282610e49565b61211c57600160008084815260200190815260200160002060000160008373ffffffffffffffffffffffffffffffffffffffff1673ffffffffffffffffffffffffffffffffffffffff16815260200190815260200160002060006101000a81548160ff0219169083151502179055506120c161142e565b73ffffffffffffffffffffffffffffffffffffffff168173ffffffffffffffffffffffffffffffffffffffff16837f2f8788117e7eff1d82e926ec794901d17c78024a50270940304540a733656f0d60405160405180910390a45b5050565b600061212c83836127c0565b61218557826000018290806001815401808255809150506001900390600052602060002001600090919091909150558260000180549050836001016000848152602001908152602001600020819055506001905061218a565b600090505b92915050565b60007f80ac58cd000000000000000000000000000000000000000000000000000000007bffffffffffffffffffffffffffffffffffffffffffffffffffffffff1916827bffffffffffffffffffffffffffffffffffffffffffffffffffffffff1916148061225b57507f5b5e139f000000000000000000000000000000000000000000000000000000007bffffffffffffffffffffffffffffffffffffffffffffffffffffffff1916827bffffffffffffffffffffffffffffffffffffffffffffffffffffffff1916145b8061226b575061226a826127e3565b5b9050919050565b61227d83838361285d565b505050565b61228c8282610e49565b61231b576122b18173ffffffffffffffffffffffffffffffffffffffff1660146128b5565b6122bf8360001c60206128b5565b6040516020016122d09291906139b7565b6040516020818303038152906040526040517f08c379a00000000000000000000000000000000000000000000000000000000081526004016123129190613a8e565b60405180910390fd5b5050565b6123298282610e49565b156123fc57600080600084815260200190815260200160002060000160008373ffffffffffffffffffffffffffffffffffffffff1673ffffffffffffffffffffffffffffffffffffffff16815260200190815260200160002060006101000a81548160ff0219169083151502179055506123a161142e565b73ffffffffffffffffffffffffffffffffffffffff168173ffffffffffffffffffffffffffffffffffffffff16837ff6391f5c32d9c69d2a47ea670b442974b53935d1edc7fd64eb21e047a839171b60405160405180910390a45b5050565b600080836001016000848152602001908152602001600020549050600081146125725760006001826124329190613f85565b905060006001866000018054905061244a9190613f85565b9050600086600001828154811061248a577f4e487b7100000000000000000000000000000000000000000000000000000000600052603260045260246000fd5b90600052602060002001549050808760000184815481106124d4577f4e487b7100000000000000000000000000000000000000000000000000000000600052603260045260246000fd5b9060005260206000200181905550838760010160008381526020019081526020016000208190555086600001805480612536577f4e487b7100000000000000000000000000000000000000000000000000000000600052603160045260246000fd5b60019003818190600052602060002001600090559055866001016000878152602001908152602001600020600090556001945050505050612578565b60009150505b92915050565b6000818360000180549050116125c9576040517f08c379a00000000000000000000000000000000000000000000000000000000081526004016125c090613ab0565b60405180910390fd5b826000018281548110612605577f4e487b7100000000000000000000000000000000000000000000000000000000600052603260045260246000fd5b9060005260206000200154905092915050565b60006126398473ffffffffffffffffffffffffffffffffffffffff16612baf565b156127a2578373ffffffffffffffffffffffffffffffffffffffff1663150b7a0261266261142e565b8786866040518563ffffffff1660e01b81526004016126849493929190613a0c565b602060405180830381600087803b15801561269e57600080fd5b505af19250505080156126cf57506040513d601f19601f820116820180604052508101906126cc919061348e565b60015b612752573d80600081146126ff576040519150601f19603f3d011682016040523d82523d6000602084013e612704565b606091505b5060008151141561274a576040517f08c379a000000000000000000000000000000000000000000000000000000000815260040161274190613b50565b60405180910390fd5b805181602001fd5b63150b7a0260e01b7bffffffffffffffffffffffffffffffffffffffffffffffffffffffff1916817bffffffffffffffffffffffffffffffffffffffffffffffffffffffff1916149150506127a7565b600190505b949350505050565b600081600001805490509050919050565b600080836001016000848152602001908152602001600020541415905092915050565b60007f5a05180f000000000000000000000000000000000000000000000000000000007bffffffffffffffffffffffffffffffffffffffffffffffffffffffff1916827bffffffffffffffffffffffffffffffffffffffffffffffffffffffff19161480612856575061285582612bc2565b5b9050919050565b612868838383612c3c565b612870610b8f565b156128b0576040517f08c379a00000000000000000000000000000000000000000000000000000000081526004016128a790613af0565b60405180910390fd5b505050565b6060600060028360026128c89190613f2b565b6128d29190613ea4565b67ffffffffffffffff811115612911577f4e487b7100000000000000000000000000000000000000000000000000000000600052604160045260246000fd5b6040519080825280601f01601f1916602001820160405280156129435781602001600182028036833780820191505090505b5090507f3000000000000000000000000000000000000000000000000000000000000000816000815181106129a1577f4e487b7100000000000000000000000000000000000000000000000000000000600052603260045260246000fd5b60200101907effffffffffffffffffffffffffffffffffffffffffffffffffffffffffffff1916908160001a9053507f780000000000000000000000000000000000000000000000000000000000000081600181518110612a2b577f4e487b7100000000000000000000000000000000000000000000000000000000600052603260045260246000fd5b60200101907effffffffffffffffffffffffffffffffffffffffffffffffffffffffffffff1916908160001a90535060006001846002612a6b9190613f2b565b612a759190613ea4565b90505b6001811115612b61577f3031323334353637383961626364656600000000000000000000000000000000600f861660108110612add577f4e487b7100000000000000000000000000000000000000000000000000000000600052603260045260246000fd5b1a60f81b828281518110612b1a577f4e487b7100000000000000000000000000000000000000000000000000000000600052603260045260246000fd5b60200101907effffffffffffffffffffffffffffffffffffffffffffffffffffffffffffff1916908160001a905350600485901c945080612b5a90614079565b9050612a78565b5060008414612ba5576040517f08c379a0000000000000000000000000000000000000000000000000000000008152600401612b9c90613ad0565b60405180910390fd5b8091505092915050565b600080823b905060008111915050919050565b60007f7965db0b000000000000000000000000000000000000000000000000000000007bffffffffffffffffffffffffffffffffffffffffffffffffffffffff1916827bffffffffffffffffffffffffffffffffffffffffffffffffffffffff19161480612c355750612c3482612d50565b5b9050919050565b612c47838383612dba565b600073ffffffffffffffffffffffffffffffffffffffff168373ffffffffffffffffffffffffffffffffffffffff161415612c8a57612c8581612dbf565b612cc9565b8173ffffffffffffffffffffffffffffffffffffffff168373ffffffffffffffffffffffffffffffffffffffff1614612cc857612cc78382612e08565b5b5b600073ffffffffffffffffffffffffffffffffffffffff168273ffffffffffffffffffffffffffffffffffffffff161415612d0c57612d0781612f75565b612d4b565b8273ffffffffffffffffffffffffffffffffffffffff168273ffffffffffffffffffffffffffffffffffffffff1614612d4a57612d4982826130b8565b5b5b505050565b60007f01ffc9a7000000000000000000000000000000000000000000000000000000007bffffffffffffffffffffffffffffffffffffffffffffffffffffffff1916827bffffffffffffffffffffffffffffffffffffffffffffffffffffffff1916149050919050565b505050565b600a80549050600b600083815260200190815260200160002081905550600a81908060018154018082558091505060019003906000526020600020016000909190919091505550565b60006001612e1584610ce8565b612e1f9190613f85565b9050600060096000848152602001908152602001600020549050818114612f04576000600860008673ffffffffffffffffffffffffffffffffffffffff1673ffffffffffffffffffffffffffffffffffffffff168152602001908152602001600020600084815260200190815260200160002054905080600860008773ffffffffffffffffffffffffffffffffffffffff1673ffffffffffffffffffffffffffffffffffffffff168152602001908152602001600020600084815260200190815260200160002081905550816009600083815260200190815260200160002081905550505b6009600084815260200190815260200160002060009055600860008573ffffffffffffffffffffffffffffffffffffffff1673ffffffffffffffffffffffffffffffffffffffff16815260200190815260200160002060008381526020019081526020016000206000905550505050565b60006001600a80549050612f899190613f85565b90506000600b60008481526020019081526020016000205490506000600a8381548110612fdf577f4e487b7100000000000000000000000000000000000000000000000000000000600052603260045260246000fd5b9060005260206000200154905080600a8381548110613027577f4e487b7100000000000000000000000000000000000000000000000000000000600052603260045260246000fd5b906000526020600020018190555081600b600083815260200190815260200160002081905550600b600085815260200190815260200160002060009055600a80548061309c577f4e487b7100000000000000000000000000000000000000000000000000000000600052603160045260246000fd5b6001900381819060005260206000200160009055905550505050565b60006130c383610ce8565b905081600860008573ffffffffffffffffffffffffffffffffffffffff1673ffffffffffffffffffffffffffffffffffffffff168152602001908152602001600020600083815260200190815260200160002081905550806009600084815260200190815260200160002081905550505050565b600061314a61314584613e30565b613e0b565b90508281526020810184848401111561316257600080fd5b61316d848285614037565b509392505050565b600081359050613184816149c1565b92915050565b600081359050613199816149d8565b92915050565b6000813590506131ae816149ef565b92915050565b6000813590506131c381614a06565b92915050565b6000815190506131d881614a06565b92915050565b600082601f8301126131ef57600080fd5b81356131ff848260208601613137565b91505092915050565b60008135905061321781614a1d565b92915050565b60006020828403121561322f57600080fd5b600061323d84828501613175565b91505092915050565b6000806040838503121561325957600080fd5b600061326785828601613175565b925050602061327885828601613175565b9150509250929050565b60008060006060848603121561329757600080fd5b60006132a586828701613175565b93505060206132b686828701613175565b92505060406132c786828701613208565b9150509250925092565b600080600080608085870312156132e757600080fd5b60006132f587828801613175565b945050602061330687828801613175565b935050604061331787828801613208565b925050606085013567ffffffffffffffff81111561333457600080fd5b613340878288016131de565b91505092959194509250565b6000806040838503121561335f57600080fd5b600061336d85828601613175565b925050602061337e8582860161318a565b9150509250929050565b6000806040838503121561339b57600080fd5b60006133a985828601613175565b92505060206133ba85828601613208565b9150509250929050565b6000602082840312156133d657600080fd5b60006133e48482850161319f565b91505092915050565b6000806040838503121561340057600080fd5b600061340e8582860161319f565b925050602061341f85828601613175565b9150509250929050565b6000806040838503121561343c57600080fd5b600061344a8582860161319f565b925050602061345b85828601613208565b9150509250929050565b60006020828403121561347757600080fd5b6000613485848285016131b4565b91505092915050565b6000602082840312156134a057600080fd5b60006134ae848285016131c9565b91505092915050565b6000602082840312156134c957600080fd5b60006134d784828501613208565b91505092915050565b6134e981613fb9565b82525050565b6134f881613fcb565b82525050565b61350781613fd7565b82525050565b600061351882613e61565b6135228185613e77565b9350613532818560208601614046565b61353b8161423c565b840191505092915050565b600061355182613e6c565b61355b8185613e88565b935061356b818560208601614046565b6135748161423c565b840191505092915050565b600061358a82613e6c565b6135948185613e99565b93506135a4818560208601614046565b80840191505092915050565b60006135bd602283613e88565b91506135c88261424d565b604082019050919050565b60006135e0602083613e88565b91506135eb8261429c565b602082019050919050565b6000613603602b83613e88565b915061360e826142c5565b604082019050919050565b6000613626601483613e88565b915061363182614314565b602082019050919050565b6000613649602b83613e88565b91506136548261433d565b604082019050919050565b600061366c603283613e88565b91506136778261438c565b604082019050919050565b600061368f601c83613e88565b915061369a826143db565b602082019050919050565b60006136b2603e83613e88565b91506136bd82614404565b604082019050919050565b60006136d5602483613e88565b91506136e082614453565b604082019050919050565b60006136f8601983613e88565b9150613703826144a2565b602082019050919050565b600061371b602c83613e88565b9150613726826144cb565b604082019050919050565b600061373e601083613e88565b91506137498261451a565b602082019050919050565b6000613761603883613e88565b915061376c82614543565b604082019050919050565b6000613784602a83613e88565b915061378f82614592565b604082019050919050565b60006137a7602983613e88565b91506137b2826145e1565b604082019050919050565b60006137ca602083613e88565b91506137d582614630565b602082019050919050565b60006137ed602c83613e88565b91506137f882614659565b604082019050919050565b6000613810602983613e88565b915061381b826146a8565b604082019050919050565b6000613833602f83613e88565b915061383e826146f7565b604082019050919050565b6000613856602183613e88565b915061386182614746565b604082019050919050565b6000613879603183613e88565b915061388482614795565b604082019050919050565b600061389c602c83613e88565b91506138a7826147e4565b604082019050919050565b60006138bf601783613e99565b91506138ca82614833565b601782019050919050565b60006138e2603d83613e88565b91506138ed8261485c565b604082019050919050565b6000613905603083613e88565b9150613910826148ab565b604082019050919050565b6000613928604083613e88565b9150613933826148fa565b604082019050919050565b600061394b601183613e99565b915061395682614949565b601182019050919050565b600061396e602f83613e88565b915061397982614972565b604082019050919050565b61398d8161402d565b82525050565b600061399f828561357f565b91506139ab828461357f565b91508190509392505050565b60006139c2826138b2565b91506139ce828561357f565b91506139d98261393e565b91506139e5828461357f565b91508190509392505050565b6000602082019050613a0660008301846134e0565b92915050565b6000608082019050613a2160008301876134e0565b613a2e60208301866134e0565b613a3b6040830185613984565b8181036060830152613a4d818461350d565b905095945050505050565b6000602082019050613a6d60008301846134ef565b92915050565b6000602082019050613a8860008301846134fe565b92915050565b60006020820190508181036000830152613aa88184613546565b905092915050565b60006020820190508181036000830152613ac9816135b0565b9050919050565b60006020820190508181036000830152613ae9816135d3565b9050919050565b60006020820190508181036000830152613b09816135f6565b9050919050565b60006020820190508181036000830152613b2981613619565b9050919050565b60006020820190508181036000830152613b498161363c565b9050919050565b60006020820190508181036000830152613b698161365f565b9050919050565b60006020820190508181036000830152613b8981613682565b9050919050565b60006020820190508181036000830152613ba9816136a5565b9050919050565b60006020820190508181036000830152613bc9816136c8565b9050919050565b60006020820190508181036000830152613be9816136eb565b9050919050565b60006020820190508181036000830152613c098161370e565b9050919050565b60006020820190508181036000830152613c2981613731565b9050919050565b60006020820190508181036000830152613c4981613754565b9050919050565b60006020820190508181036000830152613c6981613777565b9050919050565b60006020820190508181036000830152613c898161379a565b9050919050565b60006020820190508181036000830152613ca9816137bd565b9050919050565b60006020820190508181036000830152613cc9816137e0565b9050919050565b60006020820190508181036000830152613ce981613803565b9050919050565b60006020820190508181036000830152613d0981613826565b9050919050565b60006020820190508181036000830152613d2981613849565b9050919050565b60006020820190508181036000830152613d498161386c565b9050919050565b60006020820190508181036000830152613d698161388f565b9050919050565b60006020820190508181036000830152613d89816138d5565b9050919050565b60006020820190508181036000830152613da9816138f8565b9050919050565b60006020820190508181036000830152613dc98161391b565b9050919050565b60006020820190508181036000830152613de981613961565b9050919050565b6000602082019050613e056000830184613984565b92915050565b6000613e15613e26565b9050613e2182826140d5565b919050565b6000604051905090565b600067ffffffffffffffff821115613e4b57613e4a61420d565b5b613e548261423c565b9050602081019050919050565b600081519050919050565b600081519050919050565b600082825260208201905092915050565b600082825260208201905092915050565b600081905092915050565b6000613eaf8261402d565b9150613eba8361402d565b9250827fffffffffffffffffffffffffffffffffffffffffffffffffffffffffffffffff03821115613eef57613eee614180565b5b828201905092915050565b6000613f058261402d565b9150613f108361402d565b925082613f2057613f1f6141af565b5b828204905092915050565b6000613f368261402d565b9150613f418361402d565b9250817fffffffffffffffffffffffffffffffffffffffffffffffffffffffffffffffff0483118215151615613f7a57613f79614180565b5b828202905092915050565b6000613f908261402d565b9150613f9b8361402d565b925082821015613fae57613fad614180565b5b828203905092915050565b6000613fc48261400d565b9050919050565b60008115159050919050565b6000819050919050565b60007fffffffff0000000000000000000000000000000000000000000000000000000082169050919050565b600073ffffffffffffffffffffffffffffffffffffffff82169050919050565b6000819050919050565b82818337600083830152505050565b60005b83811015614064578082015181840152602081019050614049565b83811115614073576000848401525b50505050565b60006140848261402d565b9150600082141561409857614097614180565b5b600182039050919050565b600060028204905060018216806140bb57607f821691505b602082108114156140cf576140ce6141de565b5b50919050565b6140de8261423c565b810181811067ffffffffffffffff821117156140fd576140fc61420d565b5b80604052505050565b60006141118261402d565b91507fffffffffffffffffffffffffffffffffffffffffffffffffffffffffffffffff82141561414457614143614180565b5b600182019050919050565b600061415a8261402d565b91506141658361402d565b925082614175576141746141af565b5b828206905092915050565b7f4e487b7100000000000000000000000000000000000000000000000000000000600052601160045260246000fd5b7f4e487b7100000000000000000000000000000000000000000000000000000000600052601260045260246000fd5b7f4e487b7100000000000000000000000000000000000000000000000000000000600052602260045260246000fd5b7f4e487b7100000000000000000000000000000000000000000000000000000000600052604160045260246000fd5b6000601f19601f8301169050919050565b7f456e756d657261626c655365743a20696e646578206f7574206f6620626f756e60008201527f6473000000000000000000000000000000000000000000000000000000000000602082015250565b7f537472696e67733a20686578206c656e67746820696e73756666696369656e74600082015250565b7f4552433732315061757361626c653a20746f6b656e207472616e73666572207760008201527f68696c6520706175736564000000000000000000000000000000000000000000602082015250565b7f5061757361626c653a206e6f7420706175736564000000000000000000000000600082015250565b7f455243373231456e756d657261626c653a206f776e657220696e646578206f7560008201527f74206f6620626f756e6473000000000000000000000000000000000000000000602082015250565b7f4552433732313a207472616e7366657220746f206e6f6e20455243373231526560008201527f63656976657220696d706c656d656e7465720000000000000000000000000000602082015250565b7f4552433732313a20746f6b656e20616c7265616479206d696e74656400000000600082015250565b7f4552433732315072657365744d696e7465725061757365724175746f49643a2060008201527f6d75737420686176652070617573657220726f6c6520746f2070617573650000602082015250565b7f4552433732313a207472616e7366657220746f20746865207a65726f2061646460008201527f7265737300000000000000000000000000000000000000000000000000000000602082015250565b7f4552433732313a20617070726f766520746f2063616c6c657200000000000000600082015250565b7f4552433732313a206f70657261746f7220717565727920666f72206e6f6e657860008201527f697374656e7420746f6b656e0000000000000000000000000000000000000000602082015250565b7f5061757361626c653a2070617573656400000000000000000000000000000000600082015250565b7f4552433732313a20617070726f76652063616c6c6572206973206e6f74206f7760008201527f6e6572206e6f7220617070726f76656420666f7220616c6c0000000000000000602082015250565b7f4552433732313a2062616c616e636520717565727920666f7220746865207a6560008201527f726f206164647265737300000000000000000000000000000000000000000000602082015250565b7f4552433732313a206f776e657220717565727920666f72206e6f6e657869737460008201527f656e7420746f6b656e0000000000000000000000000000000000000000000000602082015250565b7f4552433732313a206d696e7420746f20746865207a65726f2061646472657373600082015250565b7f4552433732313a20617070726f76656420717565727920666f72206e6f6e657860008201527f697374656e7420746f6b656e0000000000000000000000000000000000000000602082015250565b7f4552433732313a207472616e73666572206f6620746f6b656e2074686174206960008201527f73206e6f74206f776e0000000000000000000000000000000000000000000000602082015250565b7f4552433732314d657461646174613a2055524920717565727920666f72206e6f60008201527f6e6578697374656e7420746f6b656e0000000000000000000000000000000000602082015250565b7f4552433732313a20617070726f76616c20746f2063757272656e74206f776e6560008201527f7200000000000000000000000000000000000000000000000000000000000000602082015250565b7f4552433732313a207472616e736665722063616c6c6572206973206e6f74206f60008201527f776e6572206e6f7220617070726f766564000000000000000000000000000000602082015250565b7f455243373231456e756d657261626c653a20676c6f62616c20696e646578206f60008201527f7574206f6620626f756e64730000000000000000000000000000000000000000602082015250565b7f416363657373436f6e74726f6c3a206163636f756e7420000000000000000000600082015250565b7f4552433732315072657365744d696e7465725061757365724175746f49643a2060008201527f6d7573742068617665206d696e74657220726f6c6520746f206d696e74000000602082015250565b7f4552433732314275726e61626c653a2063616c6c6572206973206e6f74206f7760008201527f6e6572206e6f7220617070726f76656400000000000000000000000000000000602082015250565b7f4552433732315072657365744d696e7465725061757365724175746f49643a2060008201527f6d75737420686176652070617573657220726f6c6520746f20756e7061757365602082015250565b7f206973206d697373696e6720726f6c6520000000000000000000000000000000600082015250565b7f416363657373436f6e74726f6c3a2063616e206f6e6c792072656e6f756e636560008201527f20726f6c657320666f722073656c660000000000000000000000000000000000602082015250565b6149ca81613fb9565b81146149d557600080fd5b50565b6149e181613fcb565b81146149ec57600080fd5b50565b6149f881613fd7565b8114614a0357600080fd5b50565b614a0f81613fe1565b8114614a1a57600080fd5b50565b614a268161402d565b8114614a3157600080fd5b5056fea2646970667358221220629c1ff4bcb44d8978b2dbc20c429529aeb10bfd0caa4cd321afccbd2eae2a6964736f6c63430008040033",
  "immutableReferences": {},
  "source": "// SPDX-License-Identifier: MIT\n\npragma solidity ^0.8.0;\n\nimport \"../ERC721.sol\";\nimport \"../extensions/ERC721Enumerable.sol\";\nimport \"../extensions/ERC721Burnable.sol\";\nimport \"../extensions/ERC721Pausable.sol\";\nimport \"../../../access/AccessControlEnumerable.sol\";\nimport \"../../../utils/Context.sol\";\nimport \"../../../utils/Counters.sol\";\n\n/**\n * @dev {ERC721} token, including:\n *\n *  - ability for holders to burn (destroy) their tokens\n *  - a minter role that allows for token minting (creation)\n *  - a pauser role that allows to stop all token transfers\n *  - token ID and URI autogeneration\n *\n * This contract uses {AccessControl} to lock permissioned functions using the\n * different roles - head to its documentation for details.\n *\n * The account that deploys the contract will be granted the minter and pauser\n * roles, as well as the default admin role, which will let it grant both minter\n * and pauser roles to other accounts.\n */\ncontract ERC721PresetMinterPauserAutoId is Context, AccessControlEnumerable, ERC721Enumerable, ERC721Burnable, ERC721Pausable {\n    using Counters for Counters.Counter;\n\n    bytes32 public constant MINTER_ROLE = keccak256(\"MINTER_ROLE\");\n    bytes32 public constant PAUSER_ROLE = keccak256(\"PAUSER_ROLE\");\n\n    Counters.Counter private _tokenIdTracker;\n\n    string private _baseTokenURI;\n\n    /**\n     * @dev Grants `DEFAULT_ADMIN_ROLE`, `MINTER_ROLE` and `PAUSER_ROLE` to the\n     * account that deploys the contract.\n     *\n     * Token URIs will be autogenerated based on `baseURI` and their token IDs.\n     * See {ERC721-tokenURI}.\n     */\n    constructor(string memory name, string memory symbol, string memory baseTokenURI) ERC721(name, symbol) {\n        _baseTokenURI = baseTokenURI;\n\n        _setupRole(DEFAULT_ADMIN_ROLE, _msgSender());\n\n        _setupRole(MINTER_ROLE, _msgSender());\n        _setupRole(PAUSER_ROLE, _msgSender());\n    }\n\n    function _baseURI() internal view virtual override returns (string memory) {\n        return _baseTokenURI;\n    }\n\n    /**\n     * @dev Creates a new token for `to`. Its token ID will be automatically\n     * assigned (and available on the emitted {IERC721-Transfer} event), and the token\n     * URI autogenerated based on the base URI passed at construction.\n     *\n     * See {ERC721-_mint}.\n     *\n     * Requirements:\n     *\n     * - the caller must have the `MINTER_ROLE`.\n     */\n    function mint(address to) public virtual {\n        require(hasRole(MINTER_ROLE, _msgSender()), \"ERC721PresetMinterPauserAutoId: must have minter role to mint\");\n\n        // We cannot just use balanceOf to create the new tokenId because tokens\n        // can be burned (destroyed), so we need a separate counter.\n        _mint(to, _tokenIdTracker.current());\n        _tokenIdTracker.increment();\n    }\n\n    /**\n     * @dev Pauses all token transfers.\n     *\n     * See {ERC721Pausable} and {Pausable-_pause}.\n     *\n     * Requirements:\n     *\n     * - the caller must have the `PAUSER_ROLE`.\n     */\n    function pause() public virtual {\n        require(hasRole(PAUSER_ROLE, _msgSender()), \"ERC721PresetMinterPauserAutoId: must have pauser role to pause\");\n        _pause();\n    }\n\n    /**\n     * @dev Unpauses all token transfers.\n     *\n     * See {ERC721Pausable} and {Pausable-_unpause}.\n     *\n     * Requirements:\n     *\n     * - the caller must have the `PAUSER_ROLE`.\n     */\n    function unpause() public virtual {\n        require(hasRole(PAUSER_ROLE, _msgSender()), \"ERC721PresetMinterPauserAutoId: must have pauser role to unpause\");\n        _unpause();\n    }\n\n    function _beforeTokenTransfer(address from, address to, uint256 tokenId) internal virtual override(ERC721, ERC721Enumerable, ERC721Pausable) {\n        super._beforeTokenTransfer(from, to, tokenId);\n    }\n\n    /**\n     * @dev See {IERC165-supportsInterface}.\n     */\n    function supportsInterface(bytes4 interfaceId) public view virtual override(AccessControlEnumerable, ERC721, ERC721Enumerable) returns (bool) {\n        return super.supportsInterface(interfaceId);\n    }\n}\n",
  "sourcePath": "/Users/baonq/Projects/l7/L7-NFT-ERC-solidity/contracts/lib/token/ERC721/presets/ERC721PresetMinterPauserAutoId.sol",
  "compiler": {
    "name": "solc",
    "version": "0.8.4+commit.c7e474f2.Emscripten.clang"
  },
  "schemaVersion": "3.4.1",
  "updatedAt": "2021-11-26T16:13:00.616Z",
  "devdoc": {
    "details": "{ERC721} token, including:  - ability for holders to burn (destroy) their tokens  - a minter role that allows for token minting (creation)  - a pauser role that allows to stop all token transfers  - token ID and URI autogeneration This contract uses {AccessControl} to lock permissioned functions using the different roles - head to its documentation for details. The account that deploys the contract will be granted the minter and pauser roles, as well as the default admin role, which will let it grant both minter and pauser roles to other accounts.",
    "kind": "dev",
    "methods": {
      "approve(address,uint256)": {
        "details": "See {IERC721-approve}."
      },
      "balanceOf(address)": {
        "details": "See {IERC721-balanceOf}."
      },
      "burn(uint256)": {
        "details": "Burns `tokenId`. See {ERC721-_burn}. Requirements: - The caller must own `tokenId` or be an approved operator."
      },
      "constructor": {
        "details": "Grants `DEFAULT_ADMIN_ROLE`, `MINTER_ROLE` and `PAUSER_ROLE` to the account that deploys the contract. Token URIs will be autogenerated based on `baseURI` and their token IDs. See {ERC721-tokenURI}."
      },
      "getApproved(uint256)": {
        "details": "See {IERC721-getApproved}."
      },
      "getRoleAdmin(bytes32)": {
        "details": "Returns the admin role that controls `role`. See {grantRole} and {revokeRole}. To change a role's admin, use {_setRoleAdmin}."
      },
      "getRoleMember(bytes32,uint256)": {
        "details": "Returns one of the accounts that have `role`. `index` must be a value between 0 and {getRoleMemberCount}, non-inclusive. Role bearers are not sorted in any particular way, and their ordering may change at any point. WARNING: When using {getRoleMember} and {getRoleMemberCount}, make sure you perform all queries on the same block. See the following https://forum.openzeppelin.com/t/iterating-over-elements-on-enumerableset-in-openzeppelin-contracts/2296[forum post] for more information."
      },
      "getRoleMemberCount(bytes32)": {
        "details": "Returns the number of accounts that have `role`. Can be used together with {getRoleMember} to enumerate all bearers of a role."
      },
      "grantRole(bytes32,address)": {
        "details": "Overload {grantRole} to track enumerable memberships"
      },
      "hasRole(bytes32,address)": {
        "details": "Returns `true` if `account` has been granted `role`."
      },
      "isApprovedForAll(address,address)": {
        "details": "See {IERC721-isApprovedForAll}."
      },
      "mint(address)": {
        "details": "Creates a new token for `to`. Its token ID will be automatically assigned (and available on the emitted {IERC721-Transfer} event), and the token URI autogenerated based on the base URI passed at construction. See {ERC721-_mint}. Requirements: - the caller must have the `MINTER_ROLE`."
      },
      "name()": {
        "details": "See {IERC721Metadata-name}."
      },
      "ownerOf(uint256)": {
        "details": "See {IERC721-ownerOf}."
      },
      "pause()": {
        "details": "Pauses all token transfers. See {ERC721Pausable} and {Pausable-_pause}. Requirements: - the caller must have the `PAUSER_ROLE`."
      },
      "paused()": {
        "details": "Returns true if the contract is paused, and false otherwise."
      },
      "renounceRole(bytes32,address)": {
        "details": "Overload {renounceRole} to track enumerable memberships"
      },
      "revokeRole(bytes32,address)": {
        "details": "Overload {revokeRole} to track enumerable memberships"
      },
      "safeTransferFrom(address,address,uint256)": {
        "details": "See {IERC721-safeTransferFrom}."
      },
      "safeTransferFrom(address,address,uint256,bytes)": {
        "details": "See {IERC721-safeTransferFrom}."
      },
      "setApprovalForAll(address,bool)": {
        "details": "See {IERC721-setApprovalForAll}."
      },
      "supportsInterface(bytes4)": {
        "details": "See {IERC165-supportsInterface}."
      },
      "symbol()": {
        "details": "See {IERC721Metadata-symbol}."
      },
      "tokenByIndex(uint256)": {
        "details": "See {IERC721Enumerable-tokenByIndex}."
      },
      "tokenOfOwnerByIndex(address,uint256)": {
        "details": "See {IERC721Enumerable-tokenOfOwnerByIndex}."
      },
      "tokenURI(uint256)": {
        "details": "See {IERC721Metadata-tokenURI}."
      },
      "totalSupply()": {
        "details": "See {IERC721Enumerable-totalSupply}."
      },
      "transferFrom(address,address,uint256)": {
        "details": "See {IERC721-transferFrom}."
      },
      "unpause()": {
        "details": "Unpauses all token transfers. See {ERC721Pausable} and {Pausable-_unpause}. Requirements: - the caller must have the `PAUSER_ROLE`."
      }
    },
    "version": 1
  },
  "userdoc": {
    "kind": "user",
    "methods": {},
    "version": 1
  }
}